:100000000C9444000C9461000C9461000C94610009
:100010000C9461000C9461000C9461000C946100DC
:100020000C9461000C9461000C9461000C946100CC
:100030000C9461000C9461000C9461000C946100BC
:100040000C9461000C9461000C9461000C946100AC
:100050000C9461000C9461000C9461000C9461009C
:100060000C9461000C9461005E01610179017901D9
:10007000640167016A0179017901790179016D01F2
:10008000700179017301760111241FBECFEFD8E012
:10009000DEBFCDBF19E0A0E0B1E0EEE0F4E102C0C8
:1000A00005900D92AA38B107D9F72BE0AAE8B9E07C
:1000B00001C01D92A33DB207E1F70E94BB060C945C
:1000C000050A0C9400009093C5008093C40086E05C
:1000D0008093C20088E18093C10008958091C000A0
:1000E00087FFFCCF8091C60008959091C00095FFD6
:1000F000FCCF8093C6000895CF93DF93EC018991E4
:10010000882319F00E947500FACFDF91CF910895EE
:100110000F931F93CF93DF93CDB7DEB7A0970FB6A2
:10012000F894DEBF0FBECDBF0E946E009FE9980F0E
:100130009A3198F58E010F5F1F4F893691F03CF48C
:10014000813661F08536B1F46AEA71E00CC08F3611
:1001500071F0853779F465EF71E005C061E971E010
:1001600002C063EC71E0C8010E94CE0613C06CEDC2
:1001700071E0F9CF1F928F938EE092E09F938F935F
:100180001F930F930E941B070F900F900F900F90DB
:100190000F900F90C8010E947C00A0960FB6F894B3
:1001A000DEBF0FBECDBFDF91CF911F910F9108959C
:1001B000FC01108A118A81E0828B0895CF93DF932E
:1001C000FC01DB01CD01861B970B84179507ACF46E
:1001D00082898823A1F080899D91EF01C80FD11DEC
:1001E00098838F5F803111F0808B01C0108A9089D5
:1001F00081899813E7CF128AE5CF80E001C08FEFA5
:10020000DF91CF910895CF93DF93FC01DB0121E0D3
:10021000CD01861B970B84179507B4F48289813032
:10022000A9F08189EF01C80FD11D88818D93818943
:100230008F5F803111F0818B01C0118A9189808993
:100240009813E6CF228BE4CF80E001C08FEFDF91DF
:10025000CF910895CF93DF93EC0188811F928F9304
:100260008BE292E09F938F930E94D5068B811F9221
:100270008F938A811F928F9389811F928F9384E538
:1002800092E09F938F930E94D5068BE792E09F9315
:100290008F930E94D5068DB79EB70E960FB6F89431
:1002A0009EBF0FBE8DBFEC818E2F90E080319105F7
:1002B00000F5FC01EC5CFF4F0C94C8068DE892E061
:1002C0001AC084E992E017C08AE992E014C082EB78
:1002D00092E011C08BEB92E00EC086ED92E00BC075
:1002E0008DEE92E008C088EF92E005C083E093E0D5
:1002F00002C081E193E00E94EB068F811F928F93F1
:100300008E811F928F938D811F928F9388E293E04D
:100310009F938F930E94D5068F858F938E858F93A1
:100320008D858F938C858F938B858F938A858F9303
:1003300089858F9388858F938DE493E09F938F9326
:100340000E94D5068DB79EB742960FB6F8949EBF11
:100350000FBE8DBFDF91CF910895CF93DF93EC0156
:100360008A811F928F9389811F928F9388811F9218
:100370008F938DE793E09F938F930E94D506CE01D4
:1003800003969F938F9381EB93E09F938F930E94AB
:10039000D5068C858F938B858F9384EC93E09F9308
:1003A0008F930E94D5068D851F928F938EED93E0DB
:1003B0009F938F930E94D5068F858F938E858F9301
:1003C00088EF93E09F938F930E94D50688891F92B0
:1003D0008F9389E194E09F938F930E94D5068A8939
:1003E0008F9389898F938EE294E09F938F930E94DD
:1003F000D5068DB79EB780960FB6F8949EBF0FBEF8
:100400008DBF8C898F938B898F9385E594E09F9323
:100410008F930E94D5068D891F928F9388E794E071
:100420009F938F930E94D5068F898F938E898F9388
:1004300083E994E09F938F930E94D506898D8F93D3
:10044000888D8F938FEA94E09F938F930E94D506B7
:100450008B8D8F938A8D8F9381ED94E09F938F93F3
:100460000E94D5068F8D8F938E8D8F938D8D8F9358
:100470008C8D8F9387EE94E09F938F930E94D50687
:100480008BA18F938AA18F9389A18F9388A18F933A
:1004900086E095E09F938F930E94D5068DB79EB717
:1004A00080960FB6F8949EBF0FBE8DBF8CA11F9291
:1004B0008F9389E295E09F938F930E94D5068DA13B
:1004C0001F928F9380E495E09F938F930E94D506AF
:1004D0008EA11F928F9387E595E09F938F930E9443
:1004E000D5068AA58F9389A58F9388A58F938FA111
:1004F0008F9380E795E09F938F930E94D506CE015E
:100500008B969F938F9384E895E09F938F930E949F
:10051000D506CE01C6969F938F938CE995E09F9365
:100520008F930E94D506C250DE4F89818F938881B8
:100530008F9386EB95E09F938F930E94D5068DB79E
:100540009EB74E960FB6F8949EBF0FBE8DBFDF913B
:10055000CF910895CF93DF93EC018A811F928F93FF
:1005600089811F928F9388811F928F9386ED95E0EA
:100570009F938F930E94D506CE0103969F938F93EE
:1005800081EB93E09F938F930E94D5068C858F9388
:100590008B858F9384EC93E09F938F930E94D50675
:1005A0008D851F928F938EED93E09F938F930E9482
:1005B000D5068F858F938E858F9388EF93E09F93D9
:1005C0008F930E94D50688891F928F9389E194E0CA
:1005D0009F938F930E94D5068D891F928F9388E7F2
:1005E00094E09F938F930E94D5068DB79EB7809617
:1005F0000FB6F8949EBF0FBE8DBF898D8F93888DE7
:100600008F938FEA94E09F938F930E94D5068B8DF2
:100610008F938A8D8F9381ED94E09F938F930E94A7
:10062000D5068F8D8F938E8D8F938D8D8F938C8D1F
:100630008F9387EE94E09F938F930E94D5068BA1B2
:100640008F938AA18F9389A18F9388A18F9386E03E
:1006500095E09F938F930E94D5068FA18F938EA1D3
:100660008F938DA18F938CA18F938AE096E09F93B7
:100670008F930E94D50689A58F9388A58F9389E2D1
:1006800096E09F938F930E94D5068BA58F938AA5A2
:100690008F9382E496E09F938F930E94D5068DB747
:1006A0009EB782960FB6F8949EBF0FBE8DBF8FA5E2
:1006B0008F938EA58F938DA58F938CA58F9381E6B5
:1006C00096E09F938F930E94D50689A98F9388A95E
:1006D0008F938AE896E09F938F930E94D5068BA90B
:1006E0008F938AA98F9381EB96E09F938F930E94BB
:1006F000D506FE01E05CFF4F80811F928F9389E257
:1007000095E09F938F930E94D506FE01EF5BFF4F0C
:1007100080811F928F9380E495E09F938F930E9436
:10072000D506FE01EE5BFF4F80811F928F9387E518
:1007300095E09F938F930E94D506FE01ED5BFF4FDE
:1007400083818F9382818F9381818F9380818F9317
:1007500080E795E09F938F930E94D5068DB79EB753
:1007600080960FB6F8949EBF0FBE8DBFCE01895BF9
:100770009F4F9F938F9384E895E09F938F930E9460
:10078000D506CE018E5A9F4F9F938F938CE995E0AB
:100790009F938F930E94D506C250DE4F89818F931D
:1007A00088818F9386EB95E09F938F930E94D50667
:1007B0008DB79EB70C960FB6F8949EBF0FBE8DBF37
:1007C000DF91CF910895CF93DF93EC01888185303D
:1007D000F1F020F4882309F4A1C039C09E01285FFC
:1007E0003F4F8E3269F1853E91F53F932F932196CD
:1007F000DF93CF9388ED96E09F938F930E94D50669
:100800000F900F900F900F900F900F9087C0CE0118
:1008100008969F938F9307979F938F931F9285EED0
:100820008F9387E097E09F938F930E94D5068DB7B3
:100830009EB708960FB6F8949EBF0FBE8DBF19C025
:100840003F932F93DF93CF9382E497E008C0CE01CC
:1008500008969F938F93DF93CF938DE697E09F93B6
:100860008F930E94D5060F900F900F900F900F90CE
:100870000F904E895F89888D998D9A012F7133274A
:100880003F932F939A0145E0369527954A95E1F7D6
:100890002F7333273F932F93252F26952695269543
:1008A0001F922F939C012F7133273F932F939C010D
:1008B00055E0369527955A95E1F72F7033273F93EA
:1008C0002F93892F992786958454984F9F938F93C0
:1008D00083E997E09F938F930E94D5068B8D8F932A
:1008E0008A8D8F9380EC97E09F938F930E94D5061B
:1008F0008F8D8F938E8D8F938D8D8F938C8D8F9306
:1009000082ED97E09F938F930E94D5068DB79EB797
:1009100048960FB6F8949EBF0FBE8DBFDF91CF9162
:10092000089580E090E00895CF93DF93EC018881F3
:10093000853069F1853EB1F0882309F48EC0CE017F
:1009400008969F938F93DF93CF938FE398E09F93C5
:100950008F930E94D5060F900F900F900F900F90DD
:100960000F902DC0CE0108969F938F932196DF9311
:10097000CF9380EE97E09F938F930E94D5060F90C0
:100980000F900F900F900F900F9080E067C0CE01F6
:1009900008969F938F9307979F938F931F9285EE4F
:1009A0008F9389E098E09F938F930E94D5068DB72F
:1009B0009EB708960FB6F8949EBF0FBE8DBF8B856D
:1009C00080FF04C08FE598E00E94EB068B8581FFD5
:1009D00004C087E798E00E94EB068B8582FF04C085
:1009E0008DE898E00E94EB068B8583FF04C083EAC4
:1009F00098E00E94EB068B8584FF04C088EB98E0AA
:100A00000E94EB068B8585FF04C08EEC98E00E9467
:100A1000EB068A8D9B8D1F921F929F938F9385EE7D
:100A200098E09F938F930E94D5068F8D8F938E8D24
:100A30008F938D8D8F938C8D8F9388E099E09F930A
:100A40008F930E94D5062DB73EB7245F3F4F0FB658
:100A5000F8943EBF0FBE2DBF01C08FEFDF91CF9145
:100A60000895CF93C2E0CF931F9281E299E09F93C4
:100A70008F930E94D506CF931F928EE399E09F93A8
:100A80008F930E94D5061F92C0E2CF938BE599E029
:100A90009F938F930E94D5061F92CF9382E799E090
:100AA0009F938F930E94D5068DB79EB740960FB641
:100AB000F8949EBF0FBE8DBFCF910895E0E0F1E0A6
:100AC00081E090E02181233009F480C0338131300E
:100AD00039F52130D1F070F0223009F077C04AB1F9
:100AE0009C01028002C0220F331F0A94E2F7242BDC
:100AF0002AB96CC044B19C01028002C0220F331F8E
:100B00000A94E2F7242B24B961C047B19C0102800A
:100B100002C0220F331F0A94E2F7242B27B956C0D4
:100B2000311154C02130E9F078F0223031F53AB17A
:100B3000AC01028002C0440F551F0A94E2F7242F33
:100B4000209523232AB919C034B1AC01028002C018
:100B5000440F551F0A94E2F7242F2095232324B92C
:100B60000CC037B1AC01028002C0440F551F0A947B
:100B7000E2F7242F2095232327B92481211126C0B1
:100B800021812130C9F068F0223001F54BB19C0180
:100B9000028002C0220F331F0A94E2F7242B2BB9E4
:100BA00015C045B19C01028002C0220F331F0A9478
:100BB000E2F7242B25B90AC048B19C01028002C08B
:100BC000220F331F0A94E2F7242B28B9359621E02F
:100BD000E139F20709F076CF08959FEF980F9C3125
:100BE00048F595E0899FF0011124E050FF4F818185
:100BF000833001F1938191111DC0813039F020F0D3
:100C00008230C1F489B103C083B101C086B121E053
:100C100030E0028002C0220F331F0A94E2F72095D1
:100C2000309590E02823392381E0121613061CF03A
:100C300080E008958FEF08959FEF980F9C31B0F5F5
:100C400095E0899FF0011124E050FF4F81818330AE
:100C500069F19381913051F58130D9F070F0823093
:100C600029F52BB181E090E0028002C0880F991F26
:100C70000A94E2F7822B8BB917C025B181E090E08E
:100C8000028002C0880F991F0A94E2F7822B85B96F
:100C90000BC028B181E090E0028002C0880F991F4C
:100CA0000A94E2F7822B88B980E008958FEF0895C7
:100CB00025E0829FC0011124FC01E050FF4F81819B
:100CC000833081F19381913069F58130E9F078F0DA
:100CD000823041F52BB181E090E0028002C0880FA4
:100CE000991F0A94E2F7809582238BB919C025B128
:100CF00081E090E0028002C0880F991F0A94E2F719
:100D00008095822385B90CC028B181E090E00280F3
:100D100002C0880F991F0A94E2F78095822388B950
:100D200080E008958FEF0895CF93C82F0E941C068E
:100D30002FEF81EE94E0215080409040E1F700C019
:100D400000008C2FCF910C9458060F931F93CF93D4
:100D500000E011E0C0E0F8018181833019F08C2FB0
:100D60000E949406CF5F0B5F1F4FCD31A1F7CF914B
:100D70001F910F9108950E945E058AE999E00E94F3
:100D8000D80083E390E00E9463000E948800FDCFBA
:100D9000EE0FFF1F0590F491E02D0994FB01DC019B
:100DA00001900D920020E1F70895A0E0B0E0EBED96
:100DB000F6E00C94DE09AE014B5F5F4FFA016191E2
:100DC0007191AF018091CF0B9091D00B0E943D07A4
:100DD000E2E00C94FA090F931F93CF93DF93E09115
:100DE000CF0BF091D00B238121FF1BC08C01D0E0F1
:100DF000C0E0F80181918F016091CF0B7091D00B11
:100E0000DB011896ED91FC911997882331F0099533
:100E1000892B79F3DFEFCFEFECCF8AE00995892BAF
:100E200019F08FEF9FEF02C08D2F9C2FDF91CF9194
:100E30001F910F910895AEE0B0E0E1E2F7E00C946D
:100E4000DC090D891E8986E08C831A8309838FEF64
:100E50009FE79E838D83AE01475E5F4F6F89788DDC
:100E6000CE0101960E943D07EF81F885E00FF11F4A
:100E700010822E96E4E00C94F809ABE0B0E0E3E4D5
:100E8000F7E00C94CE096C017B018A01FC0117820A
:100E90001682838181FFCCC1CE0101963C01F6010F
:100EA0009381F70193FD859193FF81917F018823C1
:100EB00009F4BAC1853239F493FD859193FF81918C
:100EC0007F01853229F4B60190E00E943409E7CF12
:100ED000912C212C312CFFE1F315D8F08B3279F0D5
:100EE00038F4803279F08332A1F4232D20611DC0C3
:100EF0008D3261F0803369F4232D216016C0832D7B
:100F00008260382EE32DE4603E2E2AC0F32DF86077
:100F10001DC037FC2DC020ED280F2A3040F08E3246
:100F2000B9F436FC81C1232D2064322E19C036FE5F
:100F300006C08AE0989E200D1124922E11C0EAE08E
:100F40002E9E200D1124222EF32DF0623F2E08C07C
:100F50008C3621F4832D8068382E02C0883641F407
:100F6000F70193FD859193FF81917F018111B3CFAB
:100F7000982F9F7D9554933028F40C5F1F4F9FE36B
:100F800099830DC0833631F0833771F0833509F0D2
:100F900059C021C0F801808189830E5F1F4F8824CA
:100FA0008394912C530113C02801F2E04F0E511C81
:100FB000F801A080B18036FE03C0692D70E002C048
:100FC0006FEF7FEFC5010E9429094C018201F32DCB
:100FD000FF773F2E16C0280122E0420E511CF80177
:100FE000A080B18036FE03C0692D70E002C06FEFB3
:100FF0007FEFC5010E941E094C01F32DF0683F2EC2
:10100000820133FC1BC0822D90E088169906B0F453
:10101000B60180E290E00E9434092A94F4CFF501F1
:1010200037FC859137FE81915F01B60190E00E9407
:10103000340921102A9421E0821A91088114910424
:1010400071F7E8C0843611F0893641F5F80137FEB2
:1010500007C060817181828193810C5F1F4F08C03E
:1010600060817181072E000C880B990B0E5F1F4F5A
:10107000F32DFF763F2E97FF09C0909580957095D0
:1010800061957F4F8F4F9F4FF0683F2E2AE030E0F1
:10109000A3010E947009882E861845C0853731F457
:1010A000232D2F7EB22E2AE030E025C0932D997F8C
:1010B000B92E8F36C1F018F4883579F0B5C0803775
:1010C00019F0883721F0B0C0E92FE061BE2EB4FEE0
:1010D0000DC0FB2DF460BF2E09C034FE0AC0292FBD
:1010E0002660B22E06C028E030E005C020E130E0E6
:1010F00002C020E132E0F801B7FE07C060817181D3
:10110000828193810C5F1F4F06C06081718180E0F6
:1011100090E00E5F1F4FA3010E947009882E861871
:10112000FB2DFF773F2E36FE0DC0232D2E7FA22EE6
:10113000891458F434FE0BC032FC09C0832D8E7E16
:10114000A82E05C0B82CA32C03C0B82C01C0B92C04
:10115000A4FE0FC0FE01E80DF11D8081803321F453
:101160009A2D997EA92E09C0A2FE06C0B394B3940D
:1011700004C08A2D867809F0B394A3FC11C0A0FEA8
:1011800006C0B21488F4280C922C9B180EC0B2141E
:1011900060F4B60180E290E00E943409B394F7CF86
:1011A000B21418F42B1802C0982C212CA4FE10C0E5
:1011B000B60180E390E00E943409A2FE17C0A1FCB2
:1011C00003C088E790E002C088E590E0B6010CC05B
:1011D0008A2D867859F0A1FE02C08BE201C080E220
:1011E000A7FC8DE2B60190E00E943409891438F41E
:1011F000B60180E390E00E9434099A94F7CF8A9474
:10120000F301E80DF11D8081B60190E00E943409E0
:101210008110F5CF222009F442CEB60180E290E0A1
:101220000E9434092A94F6CFF6018681978102C084
:101230008FEF9FEF2B96E2E10C94EA09FC010590F9
:10124000615070400110D8F7809590958E0F9F1FC8
:101250000895FC016150704001900110D8F780950D
:1012600090958E0F9F1F08950F931F93CF93DF9339
:10127000FB01238121FD03C08FEF9FEF2CC022FFD4
:1012800016C046815781248135814217530744F4A3
:10129000A081B1819D012F5F3F4F318320838C93CB
:1012A000268137812F5F3F4F3783268314C08B0100
:1012B000EC01FB010084F185E02D0995892BE1F615
:1012C000D80116968D919C911797019617969C932D
:1012D0008E931697CE01DF91CF911F910F910895B4
:1012E000FA01AA27283051F1203181F1E8946F9357
:1012F0006E7F6E5F7F4F8F4F9F4FAF4FB1E03ED0FD
:10130000B4E03CD0670F781F891F9A1FA11D680F9A
:10131000791F8A1F911DA11D6A0F711D811D911DCD
:10132000A11D20D009F468943F912AE0269F112442
:101330003019305D3193DEF6CF010895462F4770A6
:10134000405D4193B3E00FD0C9F7F6CF462F4F7001
:10135000405D4A3318F0495D31FD4052419302D05F
:10136000A9F7EACFB4E0A695979587957795679505
:10137000BA95C9F700976105710508959B01AC0105
:101380000A2E06945795479537952795BA95C9F72C
:10139000620F731F841F951FA01D08952F923F9207
:1013A0004F925F926F927F928F929F92AF92BF9275
:1013B000CF92DF92EF92FF920F931F93CF93DF9321
:1013C000CDB7DEB7CA1BDB0B0FB6F894DEBF0FBE7E
:1013D000CDBF09942A88398848885F846E847D84CB
:1013E0008C849B84AA84B984C884DF80EE80FD80CD
:1013F0000C811B81AA81B981CE0FD11D0FB6F89443
:0E140000DEBF0FBECDBFED010895F894FFCF03
:10140E0000030002020103000202020200000103B7
:10141E00020101010402020101050203010106029B
:10142E00040101070300020208030002020903007F
:10143E0002020A000701010B020501010C0206015E
:10144E00010D020701010E000001010F0001010153
:10145E001000020101110003010112000401011329
:10146E000005010114030002021503000202160317
:10147E000002021701000101180101010119010208
:10148E0001011A010301011B010401011C010501E7
:10149E0001596F7520656E746572656420612076E2
:1014AE006F77656C3A20610A0D00596F7520656E75
:1014BE007465726564206120766F77656C3A20657D
:1014CE000A0D00596F7520656E7465726564206132
:1014DE0020766F77656C3A20690A0D00596F75207A
:1014EE00656E7465726564206120766F77656C3AFF
:1014FE00206F0A0D00596F7520656E7465726564F4
:10150E00206120766F77656C3A20750A0D0054685D
:10151E006174207761732074686520636F6E736FDA
:10152E006E616E743A2025630A0D00506172746903
:10153E0074696F6E20656E74727920666F756E6455
:10154E002C20666972737420627974653A20253096
:10155E0032580A00095374617274206164647265B2
:10156E00737320696E204348533A20253032583A1F
:10157E00253032583A253032580A000950617274BB
:10158E006974696F6E20747970653A2000756E7596
:10159E007365640046415431320046415431362C55
:1015AE00206C657373207468616E203332204D6930
:1015BE004200657874656E64656400464154313648
:1015CE002C2067726561746572207468616E2033B9
:1015DE0032204D69420046415433322C206C6573E3
:1015EE0073207468616E2032204769420046415470
:1015FE0033322C204C42410046415431362C204C83
:10160E00424100657874656E6465642C204C4241DD
:10161E0000756E6B6E6F776E20706172746974698F
:10162E006F6E20747970650009456E642061646484
:10163E007265737320696E204348533A2025303209
:10164E00583A253032583A253032580A0009526538
:10165E006C6174697665204C4241206164647265E8
:10166E0073733A203078253038582C202564207337
:10167E006563746F7273206C6F6E670A0046415417
:10168E00313620626F6F7420736563746F722066DB
:10169E006F756E642C206A756D7020636F64653A89
:1016AE0020253032583A253032583A253032580AF1
:1016BE0000094F454D20636F64653A205B252E3837
:1016CE00735D0A0009536563746F722073697A65DE
:1016DE0020284279746573293A2025640A0009533B
:1016EE006563746F72732070657220636C757374AA
:1016FE0065723A2025640A00094E756D6265722086
:10170E006F662072657365727665642073656374A7
:10171E006F72733A2025640A00094E756D62657208
:10172E00206F6620464154733A2025640A00094E04
:10173E00756D626572206F6620726F6F74206469BA
:10174E00726563746F727920656E74726965733A2F
:10175E002025640A0009546F74616C206E756D62E9
:10176E006572206F6620736563746F727320283103
:10177E0036293A2025640A00094D656469612064A2
:10178E00657363726970746F723A203078253032E7
:10179E00580A00094E756D626572206F66204641CB
:1017AE005420736563746F72733A2025640A0009BE
:1017BE004E756D626572206F6620736563746F720D
:1017CE00732070657220747261636B3A2025640A0F
:1017DE0000094E756D626572206F662068656164E2
:1017EE00733A2025640A00094E756D626572206F8A
:1017FE00662068696464656E20736563746F7273C6
:10180E003A2025640A0009546F74616C206E756D60
:10181E00626572206F6620736563746F7273202821
:10182E003332293A2025640A00094472697665200C
:10183E006E756D6265723A203078253032580A0026
:10184E000943757272656E7420686561643A203062
:10185E0078253032580A0009426F6F742073696719
:10186E006E61747572653A203078253032580A00F0
:10187E0009566F6C756D652049443A2030782530D5
:10188E0038580A0009566F6C756D65206C6162657B
:10189E006C3A205B252E3131735D0A000946696C66
:1018AE006573797374656D20747970653A205B2564
:1018BE002E38735D0A0009426F6F7420736563746E
:1018CE006F72207369676E61747572653A20307835
:1018DE00253034580A00464154333220626F6F74FB
:1018EE0020736563746F7220666F756E642C206A48
:1018FE00756D7020636F64653A20253032583A2535
:10190E003032583A253032580A00094641543332A3
:10191E003A206E756D626572206F66207365637412
:10192E006F72733A2025640A000946415433323AE5
:10193E002066617420666C6167733A2025303458D6
:10194E000A000946415433323A2066732076657296
:10195E0073696F6E206E756D6265723A2025640A2A
:10196E00000946415433323A20636C7573746572C4
:10197E002061646472657373206F6620726F6F747A
:10198E00206469723A2025640A00094641543332B4
:10199E003A20736563746F72206E756D6265722086
:1019AE006F66204653496E666F3A20253034580ACA
:1019BE00000946415433323A20736563746F7220C6
:1019CE006E756D626572206F66206261636B7570F5
:1019DE003A20253034580A00464154313620456E9F
:1019EE0074727920666F756E642C2044656C657414
:1019FE0065642066696C653A205B3F252E37732E31
:101A0E00252E33735D0A00464154313620456E74DF
:101A1E00727920666F756E642C2046696C65207332
:101A2E0074617274696E67207769746820307845C6
:101A3E00353A205B2563252E37732E252E33735DA5
:101A4E000A00464154313620456E74727920666F15
:101A5E00756E642C204469726563746F72793A20D6
:101A6E005B252E38732E252E33735D0A00464154A6
:101A7E00313620456E74727920666F756E642C2037
:101A8E0046696C653A205B252E38732E252E3373EE
:101A9E005D0A00202020204D6F6469666965643AF6
:101AAE0020253034642D253032642D2530326420CB
:101ABE00253032643A253032643A253032640A00D9
:101ACE002020202053746172743A205B25303458E4
:101ADE005D002020202053697A653A2025640A0093
:101AEE0044656C6574656420464154333220456EFE
:101AFE0074727920666F756E643A205B3F252E37BF
:101B0E00732E252E33735D0A004641543332204521
:101B1E006E74727920666F756E642C2053746172C8
:101B2E0074696E67207769746820307845353A207D
:101B3E005B2563252E37732E252E33735D0A0046E3
:101B4E004154333220456E74727920666F756E641F
:101B5E003A205B252E38732E252E33735D0A002016
:101B6E002020204174747269627574653A20524562
:101B7E0041444F4E4C59002020202041747472690C
:101B8E00627574653A2048494444454E0020202031
:101B9E00204174747269627574653A2053595354B6
:101BAE00454D002020202041747472696275746561
:101BBE003A204C4142454C00202020204174747242
:101BCE0069627574653A205355424449520020208B
:101BDE0020204174747269627574653A20415243D3
:101BEE004849564500202020205374617274696E56
:101BFE006720636C757465722061646472657373BB
:101C0E003A20253038580A002020202046696C657D
:101C1E002073697A653A2025642042797465730AC7
:101C2E0000666174313620626F6F74207365637461
:101C3E006F722073697A65203A2025640A00666106
:101C4E0074333220626F6F7420736563746F722009
:101C5E0073697A65203A2025640A0066617431360C
:101C6E0020656E7472792073697A65203A20256436
:101C7E000A00666174333220656E7472792073695E
:0A1C8E007A65203A2025640A000060
:00000001FF
